:060000000A128A11FC2F18
:100DDA008316031789018801831603138801870183
:100DEA000330950086008312031387018801831656
:100DFA000313811308000A128A11ED260A128A11B6
:100E0A000130F0000030F1000A128A1161270A123B
:100E1A008A110130F0000030F1000A128A112427E9
:100E2A000A128A110130F0000030F1000A128A1108
:100E3A009E270A128A11052F0A128A1100285A2F90
:100E4A00F4018030F2007208F5008312031387015F
:100E5A002730F300F530F200F20B312FF30B312F6C
:100E6A004E2F75088312031388002730F300F530DC
:100E7A00F200F20B3E2FF30B3E2F7508F20003101F
:100E8A00720C7504F3007308F5000130F200720861
:100E9A00F40708307402031C532F542F362F0130E5
:100EAA00F0020030031CF103F10270087104031D03
:100EBA005F2F602F252F0800972F831203138701B6
:100ECA002730F300F530F200F20B692FF30B692F8C
:100EDA00F5018B2F750AF2008030F3000030F40020
:100EEA00792F740DF40CF30CF20B762F730883121E
:100EFA00031388002730F300F530F200F20B832F3A
:100F0A00F30B832F0130F2007208F50708307502DF
:100F1A00031C902F912F6F2F0130F0020030031C19
:100F2A00F103F10270087104031D9C2F9D2F622F9B
:100F3A000800F52F8312031388012730F300F530D8
:100F4A00F200F20BA62FF30BA62FF501F601803063
:100F5A00F2007208F400E92FF701CD2F7408F200AD
:100F6A00770AB92F0310F20CFF3E031DB72F720840
:100F7A0075048312031388002730F300F530F2005A
:100F8A00F20BC52FF30BC52F0130F2007208F707D9
:100F9A000030F3007608083CF200031CF3037308E0
:100FAA00803A803C031DDB2F72087702031CDE2F78
:100FBA00DF2FB32F831203130808F2007208F5001B
:100FCA000130F2007208F60708307602031CEE2F91
:100FDA00EF2FB12F0130F0020030031CF103F102B0
:100FEA0070087104031DFA2FFB2F9F2F080083013D
:060FFA000A128A11002F0B
:04400E00F220FF3F5E
:00000001FF
